{
  "contractName": "Inventory",
  "abi": [
    {
      "anonymous": false,
      "inputs": [
        {
          "indexed": true,
          "internalType": "uint256",
          "name": "transactionId",
          "type": "uint256"
        },
        {
          "indexed": false,
          "internalType": "string",
          "name": "productName",
          "type": "string"
        },
        {
          "indexed": false,
          "internalType": "string",
          "name": "transactionType",
          "type": "string"
        },
        {
          "indexed": false,
          "internalType": "uint256",
          "name": "quantity",
          "type": "uint256"
        },
        {
          "indexed": false,
          "internalType": "string",
          "name": "supplierName",
          "type": "string"
        },
        {
          "indexed": false,
          "internalType": "uint256",
          "name": "timestamp",
          "type": "uint256"
        }
      ],
      "name": "TransactionStored",
      "type": "event"
    },
    {
      "inputs": [
        {
          "internalType": "uint256",
          "name": "",
          "type": "uint256"
        }
      ],
      "name": "transactions",
      "outputs": [
        {
          "internalType": "uint256",
          "name": "transactionId",
          "type": "uint256"
        },
        {
          "internalType": "string",
          "name": "productName",
          "type": "string"
        },
        {
          "internalType": "string",
          "name": "transactionType",
          "type": "string"
        },
        {
          "internalType": "uint256",
          "name": "quantity",
          "type": "uint256"
        },
        {
          "internalType": "string",
          "name": "supplierName",
          "type": "string"
        },
        {
          "internalType": "uint256",
          "name": "timestamp",
          "type": "uint256"
        }
      ],
      "stateMutability": "view",
      "type": "function",
      "constant": true
    },
    {
      "inputs": [
        {
          "internalType": "uint256",
          "name": "_transactionId",
          "type": "uint256"
        },
        {
          "internalType": "string",
          "name": "_productName",
          "type": "string"
        },
        {
          "internalType": "string",
          "name": "_transactionType",
          "type": "string"
        },
        {
          "internalType": "uint256",
          "name": "_quantity",
          "type": "uint256"
        },
        {
          "internalType": "string",
          "name": "_supplierName",
          "type": "string"
        }
      ],
      "name": "storeTransaction",
      "outputs": [],
      "stateMutability": "nonpayable",
      "type": "function"
    }
  ],
  "bytecode": "0x608060405234801561000f575f80fd5b50610a398061001d5f395ff3fe608060405234801561000f575f80fd5b5060043610610034575f3560e01c80639ace38c214610038578063f1c907bc1461006d575b5f80fd5b610052600480360381019061004d91906103a5565b610089565b60405161006496959493929190610469565b60405180910390f35b61008760048036038101906100829190610609565b610261565b005b5f8181548110610097575f80fd5b905f5260205f2090600602015f91509050805f0154908060010180546100bc90610701565b80601f01602080910402602001604051908101604052809291908181526020018280546100e890610701565b80156101335780601f1061010a57610100808354040283529160200191610133565b820191905f5260205f20905b81548152906001019060200180831161011657829003601f168201915b50505050509080600201805461014890610701565b80601f016020809104026020016040519081016040528092919081815260200182805461017490610701565b80156101bf5780601f10610196576101008083540402835291602001916101bf565b820191905f5260205f20905b8154815290600101906020018083116101a257829003601f168201915b5050505050908060030154908060040180546101da90610701565b80601f016020809104026020016040519081016040528092919081815260200182805461020690610701565b80156102515780601f1061022857610100808354040283529160200191610251565b820191905f5260205f20905b81548152906001019060200180831161023457829003601f168201915b5050505050908060050154905086565b5f6040518060c001604052808781526020018681526020018581526020018481526020018381526020014281525090505f81908060018154018082558091505060019003905f5260205f2090600602015f909190919091505f820151815f015560208201518160010190816102d691906108ce565b5060408201518160020190816102ec91906108ce565b5060608201518160030155608082015181600401908161030c91906108ce565b5060a082015181600501555050857fe7a1631d657a19858dba89337809264af96a5ee33dc95cb6de76e6f52fa246fe868686864260405161035195949392919061099d565b60405180910390a2505050505050565b5f604051905090565b5f80fd5b5f80fd5b5f819050919050565b61038481610372565b811461038e575f80fd5b50565b5f8135905061039f8161037b565b92915050565b5f602082840312156103ba576103b961036a565b5b5f6103c784828501610391565b91505092915050565b6103d981610372565b82525050565b5f81519050919050565b5f82825260208201905092915050565b5f5b838110156104165780820151818401526020810190506103fb565b5f8484015250505050565b5f601f19601f8301169050919050565b5f61043b826103df565b61044581856103e9565b93506104558185602086016103f9565b61045e81610421565b840191505092915050565b5f60c08201905061047c5f8301896103d0565b818103602083015261048e8188610431565b905081810360408301526104a28187610431565b90506104b160608301866103d0565b81810360808301526104c38185610431565b90506104d260a08301846103d0565b979650505050505050565b5f80fd5b5f80fd5b7f4e487b71000000000000000000000000000000000000000000000000000000005f52604160045260245ffd5b61051b82610421565b810181811067ffffffffffffffff8211171561053a576105396104e5565b5b80604052505050565b5f61054c610361565b90506105588282610512565b919050565b5f67ffffffffffffffff821115610577576105766104e5565b5b61058082610421565b9050602081019050919050565b828183375f83830152505050565b5f6105ad6105a88461055d565b610543565b9050828152602081018484840111156105c9576105c86104e1565b5b6105d484828561058d565b509392505050565b5f82601f8301126105f0576105ef6104dd565b5b813561060084826020860161059b565b91505092915050565b5f805f805f60a086880312156106225761062161036a565b5b5f61062f88828901610391565b955050602086013567ffffffffffffffff8111156106505761064f61036e565b5b61065c888289016105dc565b945050604086013567ffffffffffffffff81111561067d5761067c61036e565b5b610689888289016105dc565b935050606061069a88828901610391565b925050608086013567ffffffffffffffff8111156106bb576106ba61036e565b5b6106c7888289016105dc565b9150509295509295909350565b7f4e487b71000000000000000000000000000000000000000000000000000000005f52602260045260245ffd5b5f600282049050600182168061071857607f821691505b60208210810361072b5761072a6106d4565b5b50919050565b5f819050815f5260205f209050919050565b5f6020601f8301049050919050565b5f82821b905092915050565b5f6008830261078d7fffffffffffffffffffffffffffffffffffffffffffffffffffffffffffffffff82610752565b6107978683610752565b95508019841693508086168417925050509392505050565b5f819050919050565b5f6107d26107cd6107c884610372565b6107af565b610372565b9050919050565b5f819050919050565b6107eb836107b8565b6107ff6107f7826107d9565b84845461075e565b825550505050565b5f90565b610813610807565b61081e8184846107e2565b505050565b5b81811015610841576108365f8261080b565b600181019050610824565b5050565b601f8211156108865761085781610731565b61086084610743565b8101602085101561086f578190505b61088361087b85610743565b830182610823565b50505b505050565b5f82821c905092915050565b5f6108a65f198460080261088b565b1980831691505092915050565b5f6108be8383610897565b9150826002028217905092915050565b6108d7826103df565b67ffffffffffffffff8111156108f0576108ef6104e5565b5b6108fa8254610701565b610905828285610845565b5f60209050601f831160018114610936575f8415610924578287015190505b61092e85826108b3565b865550610995565b601f19841661094486610731565b5f5b8281101561096b57848901518255600182019150602085019450602081019050610946565b868310156109885784890151610984601f891682610897565b8355505b6001600288020188555050505b505050505050565b5f60a0820190508181035f8301526109b58188610431565b905081810360208301526109c98187610431565b90506109d860408301866103d0565b81810360608301526109ea8185610431565b90506109f960808301846103d0565b969550505050505056fea264697066735822122010402595633f1d52281ad609993b0b1f42d9de8caab6b90027395514313b3f0e64736f6c63430008150033",
  "immutableReferences": {},
  "source": "// SPDX-License-Identifier: MIT\r\npragma solidity ^0.8.21;\r\n\r\ncontract Inventory {\r\n    struct TxRecord {\r\n        uint256 transactionId; // optional or auto\r\n        string productName;\r\n        string transactionType; // \"IN\" or \"OUT\"\r\n        uint256 quantity;\r\n        string supplierName;\r\n        uint256 timestamp; // block timestamp\r\n    }\r\n\r\n    TxRecord[] public transactions;\r\n\r\n    event TransactionStored(\r\n        uint256 indexed transactionId,\r\n        string productName,\r\n        string transactionType,\r\n        uint256 quantity,\r\n        string supplierName,\r\n        uint256 timestamp\r\n    );\r\n\r\n    function storeTransaction(\r\n        uint256 _transactionId,\r\n        string memory _productName,\r\n        string memory _transactionType,\r\n        uint256 _quantity,\r\n        string memory _supplierName\r\n    ) public {\r\n        TxRecord memory newTx = TxRecord({\r\n            transactionId: _transactionId,\r\n            productName: _productName,\r\n            transactionType: _transactionType,\r\n            quantity: _quantity,\r\n            supplierName: _supplierName,\r\n            timestamp: block.timestamp\r\n        });\r\n\r\n        transactions.push(newTx);\r\n\r\n        emit TransactionStored(\r\n            _transactionId,\r\n            _productName,\r\n            _transactionType,\r\n            _quantity,\r\n            _supplierName,\r\n            block.timestamp\r\n        );\r\n    }\r\n\r\n    // Optionally: function getTransactionCount() public view returns (uint256) {\r\n    //     return transactions.length;\r\n    // }\r\n\r\n    // Optionally: function getTransaction(uint256 index) public view returns (TxRecord memory) {\r\n    //     return transactions[index];\r\n    // }\r\n}\r\n",
  "sourcePath": "C:\\Users\\lenovo\\Desktop\\javaProject\\InventoryChain\\contracts\\Inventory.sol",
  "compiler": {
    "name": "solc",
    "version": "0.8.21+commit.d9974bed.Emscripten.clang"
  },
  "schemaVersion": "3.4.16",
  "updatedAt": "2025-01-04T17:58:08.600Z",
  "networkType": "ethereum",
  "devdoc": {
    "kind": "dev",
    "methods": {},
    "version": 1
  },
  "userdoc": {
    "kind": "user",
    "methods": {},
    "version": 1
  }
}